:04000000BFEF09F055
:101000000000010E296E2350D8B409EF08F00BEF51
:1010100008F01BEF08F02350D96EDA6ADF30E832AF
:10102000E832070B246E070E246419EF08F01BEF5B
:1010300008F072EF08F0000E296E92EF08F02350CE
:10104000D96EDA6ADF30E832E832070B246E010E1F
:10105000256E242A2EEF08F0D8902536242E2CEF6A
:1010600008F02550FF0A266E2350D96EDA6ADF5049
:10107000070B020DF350150FD96EDA6ADECF27F099
:10108000DDCF28F027C0D9FF28C0DAFF2650DF16B1
:1010900092EF08F02350D96EDA6ADF30E832E83296
:1010A000070B246E010E256E242A59EF08F0D89004
:1010B0002536242E57EF08F02350D96EDA6ADF5018
:1010C000070B020DF350150FD96EDA6ADECF26F04A
:1010D000DDCF27F026C0D9FF27C0DAFF2550DF1269
:1010E00092EF08F02350D96EDA6ADFBC7AEF08F08D
:1010F0007DEF08F0010E7EEF08F0000E246E256AE9
:101100002550000AD8B487EF08F01BEF08F02450F0
:10111000000AD8B41FEF08F0010AD8B44AEF08F06B
:101120001BEF08F029501200010E2A6E2350D8B48C
:101130009CEF08F09EEF08F0AEEF08F02350D96E58
:10114000DA6ADF30E832E832070B256E070E2564D5
:10115000ACEF08F0AEEF08F005EF09F0000E2A6ED4
:101160001AEF09F02350D96EDA6ADF30E832E8323C
:10117000070B256E010E266E252AC1EF08F0D890C8
:101180002636252EBFEF08F02650FF0A276E235083
:10119000D96EDA6ADF50070B020DF3500B0FD96ED0
:1011A000DA6ADECF28F0DDCF29F028C0D9FF29C0C8
:1011B000DAFF2750DF161AEF09F02350D96EDA6AEA
:1011C000DF30E832E832070B256E010E266E252A45
:1011D000ECEF08F0D8902636252EEAEF08F02350E1
:1011E000D96EDA6ADF50070B020DF3500B0FD96E80
:1011F000DA6ADECF27F0DDCF28F027C0D9FF28C07C
:10120000DAFF2650DF121AEF09F02450256E266A05
:101210002650000AD8B40FEF09F0AEEF08F02550C1
:10122000000AD8B4B2EF08F0010AD8B4DDEF08F034
:10123000AEEF08F02A50120047EC0AF0210E2B6E98
:10124000F2EC09F0396E1F0E2B6EF2EC09F0396EDC
:101250001F0E306E710E2F6E1E0EE82EFED72F2E33
:10126000FCD7302EFAD700D0210E2B6E0AEC0AF0F4
:10127000396E1F0E2B6E0AEC0AF0396E1F0E306E9F
:10128000710E2F6E1E0EE82EFED72F2EFCD7302E9D
:10129000FAD700D0210E2B6EF2EC09F0396E1F0E3A
:1012A0002B6E0AEC0AF0396E1F0E306E710E2F6E27
:1012B0001E0EE82EFED72F2EFCD7302EFAD700D0E8
:1012C0001F0E2B6EF2EC09F0396E210E2B6E0AEC1C
:1012D0000AF0396E1F0E306E710E2F6E1E0EE82E44
:1012E000FED72F2EFCD7302EFAD700D0210E2B6E32
:1012F000DAEC09F0396E1F0E2B6EDAEC09F0396E5C
:101300001F0E306E710E2F6E1E0EE82EFED72F2E82
:10131000FCD7302EFAD700D01EEF09F000EF00F016
:101320002B50D8B496EF09F098EF09F0A8EF09F028
:101330002B50D96EDA6ADF30E832E832070B2C6EB8
:10134000070E2C64A6EF09F0A8EF09F0ACEF09F046
:10135000000E2D6EBDEF09F02BC023F001EC08F05C
:101360002D6E2BC023F02B50D96EDA6A000EDFBE33
:10137000010E246E94EC08F02D6E2D5012006C0EB0
:10138000F66E140EF76E000EF86E00EE01F010EE21
:1013900022F00900F5CFEEFFE550E150FAE100EE52
:1013A00031F0080EEE6AE806FDE1000EF86E00016D
:1013B0001CEF09F02B50D8A4E0EF09F0E2EF09F0A0
:1013C000E4EF09F0F0EF09F02BC023F0000E246EDB
:1013D00094EC08F02B28236E000E246E94EC08F099
:1013E000000E12002B50D8A4F8EF09F0FAEF09F024
:1013F000FCEF09F008EF0AF02BC023F0010E246E79
:1014000094EC08F02B28236E000E246E94EC08F068
:10141000000E12002B50D8A410EF0AF012EF0AF0C1
:1014200014EF0AF020EF0AF02BC023F0000E246E18
:1014300094EC08F02B28236E010E246E94EC08F037
:10144000000E12002E50D8A428EF0AF02AEF0AF05E
:101450002CEF0AF034EF0AF02EC02BF090EC09F0DC
:101460002E282B6E90EC09F0000E1200800F810FD9
:10147000820F830F840F890F8A0F8B0F8C0F8D0FB4
:10148000920F930F940F950F960F121A020A210EC6
:101490002E6E22EC0AF0396E1F0E2E6E22EC0AF030
:0414A000396E12008F
:020000040020DA
:08000000FFFFFFFFFFFFFFFF00
:020000040030CA
:0E000000FF02091EFF8181FF0FC00FE00F40BD
:00000001FF
